:020000040800F2
:10000000C0130020750100087D0100087F01000871
:10001000810100088301000885010008000000003C
:100020000000000000000000000000008701000840
:1000300089010008000000008B0100088D01000804
:100040008F0100088F0100088F0100088F01000850
:100050008F0100088F0100088F0100088F01000840
:100060008F0100088F0100088F0100088F01000830
:100070008F01000845040008152200088F010008C0
:100080008F0100088F0100088F0100088F01000810
:100090008F010008511200088F0100088F0100082D
:1000A0008F0100088F0100088F0100088F010008F0
:1000B0008F0100088F0100088F0100088F010008E0
:1000C0008F0100088F0100088F0100088D210008B2
:1000D0008F0100088F01000800F002F800F03AF8E4
:1000E0000AA090E8000C82448344AAF10107DA4593
:1000F00001D100F02FF8AFF2090EBAE80F0013F0AB
:10010000010F18BFFB1A43F00103184784320000A7
:10011000A4320000103A24BF78C878C1FAD8520738
:1001200024BF30C830C144BF04680C607047000071
:100130000023002400250026103A28BF78C1FBD8F0
:10014000520728BF30C148BF0B6070471FB51FBDA5
:1001500010B510BD00F000F91146FFF7F7FF02F0EF
:10016000D7FB00F01EF903B4FFF7F2FF03BC00F069
:1001700021F900000948804709480047FEE7FEE7EB
:10018000FEE7FEE7FEE7FEE7FEE7FEE7FEE7FEE747
:1001900004480549054A064B70470000191200083B
:1001A000D9000008C00E0020C0130020C00F00209E
:1001B000C00F002040EA010310B59B070FD1042AAD
:1001C0000DD310C808C9121F9C42F8D020BA19BA22
:1001D000884201D9012010BD4FF0FF3010BD1AB187
:1001E000D30703D0521C07E0002010BD10F8013BDC
:1001F00011F8014B1B1B07D110F8013B11F8014B03
:100200001B1B01D1921EF1D1184610BD032A40F2EA
:10021000308010F0030C00F0158011F8013BBCF1A8
:10022000020F624498BF11F801CB00F8013B38BFC0
:1002300011F8013BA2F1040298BF00F801CB38BFCE
:1002400000F8013B11F0030300F04F80083AC0F0C2
:10025000088051F8043B083A51F804CBA0E8081094
:10026000F5E7121D5CBF51F8043B40F8043BAFF3C7
:100270000080D20724BF11F8013B11F801CB48BF21
:1002800011F8012B24BF00F8013B00F801CB48BF57
:1002900000F8012B70474FF0000200B5134694465A
:1002A0009646203922BFA0E80C50A0E80C50B1F1CE
:1002B0002001BFF4F7AF090728BFA0E80C5048BFE2
:1002C0000CC05DF804EB890028BF40F8042B08BF80
:1002D000704748BF20F8022B11F0804F18BF00F87C
:1002E000012B704770477047704710B5203AC0F037
:1002F0000B80B1E81850203AA0E81850B1E8185027
:10030000A0E81850BFF4F5AF5FEA027C24BFB1E863
:100310001850A0E8185044BF18C918C0BDE81040D4
:100320005FEA827C24BF51F8043B40F8043B08BFDD
:100330007047D20728BF31F8023B48BF11F8012BA4
:1003400028BF20F8023B48BF00F8012B704700008F
:10035000004870475C0E00207546FFF7F9FFAE4677
:1003600005006946534620F00700854618B020B5C1
:10037000FFF70EFFBDE820404FF000064FF00007EA
:100380004FF000084FF0000B21F00701AC46ACE83D
:10039000C009ACE8C009ACE8C009ACE8C0098D46AA
:1003A000704710B50446AFF300802046BDE810400A
:1003B000FFF7D9BE01491820ABBEFEE726000200B8
:1003C0007047000000210112CA43014B1A607047B8
:1003D000003C004030B50146A1F12000C0F30B0203
:1003E00085233524101942F2107568431D44B0FB73
:1003F000F5F2B2F5805F01D2104601E040F6FF70E1
:1004000080B230BD30B501460020002300220B121F
:100410000B4C2468CDB204EA0502094C5034246820
:1004200001F0030504EA05442243054C241F246817
:100430001C4014B10AB1012000E0002030BD0000D2
:10044000043C004010B54FF40870FFF7DBFF50B1DB
:100450004FF40870FFF7B6FF0349096888B2FFF749
:10046000B9FF0249088010BD4C3C004080000020CC
:1004700030B10749096841F48001054A116005E07F
:100480000349096821F48001014A116070470000A6
:10049000083C004010B59AB9F723144C6370144B14
:1004A00003EBC0035B5C802444EA13130F4CA3707E
:1004B0000F4B03EBC0035B5C03F00F03E37014E02E
:1004C000012A12D1F723094C6370094B03EBC003D7
:1004D0005B5C002444EA1313044CA370044B03EB4D
:1004E000C0035B5C03F00F03E37010BDBE0100208E
:1004F0002E32000810B5012006490860AE222F21D7
:10050000002000F009F800204FF08441C1F8BC023F
:1005100010BD0000BC02004270B504460D461646F0
:100520004FF480510A4800F04DFB04F00701A0226F
:1005300042EA410000F052FD284600F04FFD3046EF
:1005400000F04CFD4FF48051014800F03EFB70BDBF
:100550000004004010B5012148F2E00000F0DAFC90
:1005600000F074FB40F26711C72000F09BFE10BD45
:1005700010B500F06BFB00F03FF81848007A012836
:1005800012D11648007C01280ED11448407858B981
:100590001248007940B91249086880F3088800BF02
:1005A0004868804700BFFEE70C484078012813D117
:1005B0000A48807A01280FD10848807901280BD198
:1005C0000648007A40B90548007C28B9034880787D
:1005D00010B901200349087010BD0000D8000020A8
:1005E00000E0FF1F7900002030B504460D46294683
:1005F000204600F077FD30BD2DE9FF4100270024A3
:100600000025A04600BF20E000251AE00021324866
:1006100000EB840041553048143000EB8400415514
:100620002D48283000EB840041552B483C3000EB2E
:10063000840041552848503000EB84004155681C27
:10064000C5B2042DE2DB601CC4B2052CDCDB002645
:100650003DE04FF478004FF0804188611F4830F84A
:10066000160088614FF49670039000BF0398411EF6
:1006700003910028FAD11A48006880B22DF81600BC
:1006800006F0FF0800271FE03DF81600154911F895
:10069000172001219140084050B101210E48283017
:1006A00000EB8800C15539464046FFF79DFF09E041
:1006B00000210948283000EB8800C15539464046E2
:1006C000FFF792FF781CC7B2042FDDDB761C052EE6
:1006D000BFD3BDE8FF810000D9000020702F0008C3
:1006E000100400400A3000080448006810B10348B4
:1006F000406808B9012070470020FCE7007000083E
:10070000044800680449884201D101207047002054
:10071000FCE70000006800081234567810B5142277
:1007200004490548FFF772FD142204490448FFF705
:100730006DFD10BD3A300008420D00202630000843
:100740002E0D002001490860704700001418004079
:10075000002123498279002A3AD00A4612680368A8
:100760009A430B461A600A1D126803689A430B1DD0
:100770001A60027911440A6803681A430A60184A29
:100780000832126803689A43154B08331A601A1D21
:10079000126803689A43124B0C331A604279102A8C
:1007A0000ED11A1F126803681A430D4B08331A60E2
:1007B0001A1D126803681A43094B0C331A600DE0C6
:1007C0000749427911440A6803681A430A6005E040
:1007D000027911440A6803689A430A60704700006E
:1007E000001800404FF080400069C0F341003649D6
:1007F00008703648007810B1012862D143E03448CF
:10080000007831490978884205D100202F490870C5
:100810003049087036E02E480078032827D12A484E
:100820000078012802D0022815D109E001202949C9
:10083000087026490870244800782549087014E09B
:100840000220244908700120204908701E480078C1
:100850001F49087009E000201E4908701B490870F4
:10086000194800781A49087000BF00BF09E000204D
:100870001849087015490870134800781449087021
:1008800000BF00BF1DE010480078032818D11148B0
:100890000078012802D0022808D103E001200E4987
:1008A000087003E001200D49087000BF00BF002060
:1008B0000849087005490870034800780449087021
:1008C00000BF00BF704700007A0000207E000020BB
:1008D0007B0000207F0000207C0000207D000020A5
:1008E0003EB50446144A07CA8DE8070001201349A3
:1008F000086004F01F0012490843124908601248BA
:1009000010490C310860114808600E494FF0801002
:100910000DF1010290470020084908604FF4BE0025
:100920000849086007480830006800F0040008B172
:1009300001203EBD0020FCE780330008600C014030
:10094000400D5F7F0078014008DA885190655812A9
:1009500070B5EFF3108000F0010572B60420FFF7C8
:10096000BFFF044605B962B6204670BD70B50446A7
:10097000EFF3108000F0010672B606488047064883
:1009800004600820FFF7ACFF054606B962B62846AA
:1009900070BD00009D3200081078014070B504461B
:1009A000EFF3108000F0010672B606488047064853
:1009B00004600C20FFF794FF054606B962B628468E
:1009C00070BD00009D3200081078014010B5002A6B
:1009D0007CD10D2878D2DFE800F077070B0F1317D2
:1009E0001B1F233F5B6269000A234F4C23706CE09E
:1009F0000A234E4C237068E00A234D4C237064E0B8
:100A00000A234C4C237060E001234B4C23705CE0C4
:100A100001234A4C237058E00123494C237054E0D1
:100A2000484B1B78032B05D10123474C2370474CBF
:100A3000237010E0434B1B78012B04D1444C2370EE
:100A4000444C237007E03F4B1B7823B90123424CF1
:100A50002370424C237038E03A4B1B78032B05D1AE
:100A600001233F4C2370394C237010E0354B1B7829
:100A7000012B04D13B4C2370364C237007E0314BE3
:100A80001B7823B90123384C2370344C23701CE0AD
:100A90002C4B1B7843F001032A4C237015E0294BA3
:100AA0001B7843F00203274C23700EE02F4B1B787A
:100AB000012B05D100232D4C237004E006E003E058
:100AC00001232A4C237000E000BF2BE0012A29D12A
:100AD0000C2825D2DFE800F024060A0E1224242474
:100AE0002424161D0023104C23701AE000230F4C01
:100AF000237016E000230E4C237012E000230D4CEF
:100B000023700EE00F4B1B7823F001030D4C237074
:100B100007E00C4B1B7823F002030A4C237000E023
:100B200000BF00BF10BD00008D0000208C00002021
:100B30008F0000208E0000209200002091000020F5
:100B400090000020960000208500002087000020F3
:100B50008200002084000020880000208A000020FD
:100B600086000020830000208900002098000020DB
:100B700010B5CB43036302F003034FF055346343D6
:100B8000C36210BD30B50B461146DC430463C1F3AC
:100B900001744FF055356C430460C1F30064644246
:100BA0004460C1F301546C438460C1F301446C435D
:100BB000C46001F00F044FF0113504FB05F1016230
:100BC000416230BD0A0482617047816170474161B2
:100BD0007047000070B506460C46154606F0020048
:100BE00008B100F03FFC06F0040020B100201649D7
:100BF000087000F025FC04F0010008B100F058FC7A
:100C000004F0020008B101F049F804F0040008B152
:100C100001F04CF804F0080008B101F066F805F0A6
:100C2000020008B101F040F805F0040008B101F03D
:100C30005BF805F0080008B101F058F806F0010073
:100C400008B100F01DFC70BDC600002010B50121E8
:100C500048F2600000F05EF94FF4003240F6824145
:100C60000748FFF78FFF4FF08052F8219000FFF701
:100C700089FFF8214FF08040FFF7A9FF10BD000069
:100C8000000400400FB5002019E04FF478024FF047
:100C900080439A611F4A32F810209A614FF496728D
:100CA000039200BF039A531E0393002AFAD11A4AF3
:100CB000126840F682431A402DF81020401C052887
:100CC000E3D3002023E0154A32F810203DF810301D
:100CD00082EA0301114A32F810200A400F4B33F820
:100CE00010308B431A430E4B23F810203DF8102090
:100CF0000A4B23F810201A4632F81020094B23F82B
:100D000010201A4632F8102002B100BF401C0528FE
:100D1000D9D30FBD702F000810040040240D00200F
:100D2000100D00201A0D002030B5B2B9052808DCDE
:100D3000144B5B78441E0125A5402B43114C637076
:100D40001FE0062803D101230E4CA37119E00728E8
:100D500017D1FF230B4CA37113E0012A11D10528F1
:100D600008DC084B5B78441E0125A540AB43054CCD
:100D7000637006E0062801D0072802D10023014C49
:100D8000A37130BD2400002070B5002100230F2284
:100D9000C47804B3154C246804F4E064C4F5E0643A
:100DA000210AC1F10403CA40447804FA03F18478AB
:100DB0001440214309010E4C0678A155047804F033
:100DC0001F050124AC4005786D11AD0005F1E0254B
:100DD000C5F8004109E0047804F01F050124AC4087
:100DE000044D0678761145F8264070BD0CED00E004
:100DF00000E400E080E100E002490143024A1160A2
:100E0000704700000000FA050CED00E000200249E8
:100E10008862C86270470000000001400320024958
:100E200088620C20C86270470000014010B512BBF8
:100E3000012806D002280AD003280ED0042818D191
:100E400011E001230D4C23700D4C237012E001239F
:100E50000C4C23700A4C23700CE001230A4C2370C5
:100E60000A4C237006E00123094C2370074C2370C1
:100E700000E000BF00E000BF10BD000082000020C5
:100E800084000020830000208500002087000020CF
:100E900086000020A1B1154A1268C3B21A43134B51
:100EA0001A601A1D1268C0F30F231A430F4B1B1D43
:100EB0001A601A1D126842EA10621B1D1A6013E0C4
:100EC0000A4A1268C3B29A43084B1A601A1D126884
:100ED000C0F30F239A43054B1B1D1A601A1D12689D
:100EE00022EA10621B1D1A60704700003C0C014092
:100EF00010B5020A29B1064B1B681343044C23604A
:100F000004E0034B1B689343014C236010BD0000B9
:100F1000880C014029B1064A12680243044B1A604A
:100F200004E0034A12688243014B1A6070470000D4
:100F3000480C014029B1064A12680243044B1A606A
:100F400004E0034A12688243014B1A6070470000B4
:100F5000900C0140034908600121024A121D1160F2
:100F600070470000080C0140B9B10122114B1A6012
:100F70000822104B583B1A601A46126800F006030C
:100F80001A430C4B583B1A601A46126800F00103D2
:100F90001A43084B583B1A600BE0064A583A12684D
:100FA00002F00802034B583B1A6000221A60014B02
:100FB0001A6070476C0C014018B10121034A11609E
:100FC00002E00021014A1160704700007C0C0140E2
:100FD0000149086070470000340C014001460020C0
:100FE000704710B500F002F810BD00000CB50020ED
:100FF000019000900320354988620C20C86280204F
:10100000334908600846006808604FF401403049E1
:101010002C3108604FF6FC702E4908600F202D49D6
:101020003039086002202C4908600120091F08603F
:1010300000BF29480830006800F0010000900198C6
:10104000401C0190009820B94BF6803101988842ED
:10105000EFD1009888B321482149086000201C493D
:10106000091F086080201A49091D086008460068A9
:10107000086001201649183908602020091F0860FF
:101080000846006808600846006840F001000860F3
:10109000C0201149243108600120091D086000BFEB
:1010A0000D482C3000680328FAD102200849143971
:1010B00008600120091D086002E0FFE700BFFEE7AD
:1010C000002002498862C8620CBD00000000014097
:1010D0001C0C0140300C0040500401401200000381
:1010E00000540140144A02EB8002525C012A11D1E3
:1010F000114A283202EB8002525CE2B900230E4A08
:1011000002EB8002535401230B4A143202EB80029B
:10111000535410E0084A283202EB8002525C012A44
:1011200009D10123044A02EB80025354024A1432CB
:1011300002EB800253547047D900002001464FF063
:10114000E022516100224FF0E0239A6105221A61EA
:1011500000BF4FF0E022106900F001021AB100F464
:101160008032002AF5D04FF0E022126922F001020D
:101170004FF0E0231A61704730B5214C246834B138
:10118000012C06D0022C08D0032C27D103E01D48E7
:1011900026E01D4824E01D4822E0194C083C246844
:1011A00004F01F04641C012505EB5401184C24684D
:1011B000C4F38114C4F103040C2505EB8402104C24
:1011C000241F2468012C04D1104C5443B4FBF1F0CB
:1011D00003E00C4C5443B4FBF1F001E0094800BFBC
:1011E00000BF074C1034246804F07F04641C012500
:1011F00005EB5403B0FBF3F4064D2C6030BD00004A
:10120000080C014000127A00006CDC02001BB700E1
:1012100074040140C000002010B503200949886211
:101220000C20C86240F2BE700749086000200549E2
:101230008862C862FFF7D5FE4FF00060034908607E
:1012400010BD0000000001409404014008ED00E0E2
:1012500010B501210E4800F0A9F8B8B101210C48E1
:1012600000F05AF80B480068401C0A4908600A4818
:101270000068401C0849086008480068401C07498D
:10128000086007480068401C0549086010BD000060
:101290000020004064000020700000206C0000204E
:1012A000680000207FB505460C46012148F2040085
:1012B000FFF730FE174800F03FF80121154800F015
:1012C000AFF80295ADF804400020ADF80C00ADF881
:1012D000060001A90F4800F087F801210D4800F031
:1012E0001BF8012211460B4800F071F815208DF80B
:1012F000000000208DF801008DF8020001208DF81B
:1013000003006846FFF740FD0121024800F008F89D
:101310007FBD000000200040CA4392B202617047C6
:1013200021B1026842F00102026004E002684FF657
:10133000FE731A400260704710B504461748844295
:1013400008D101210220FFF7F5FD00210220FFF75F
:10135000F1FD22E01248844208D101210420FFF768
:10136000E9FD00210420FFF7E5FD16E00D48844269
:1013700008D101210820FFF7DDFD00210820FFF73B
:10138000D9FD0AE00848844207D101211020FFF767
:10139000D1FD00211020FFF7CDFD10BD001C004045
:1013A00000200040002400400028004030B50246E4
:1013B000002000230024156905EA0103D56805EA29
:1013C000010413B10CB1012000E0002030BD10B5C4
:1013D0001AB1C3680B43C36004E0C368CC43A4B232
:1013E0002340C36010BD0000002203689AB24FF68C
:1013F0008F731A404B881A434FF6FF431A400B89EC
:101400001A4302604B68C3620B888362034B9842A5
:1014100001D18B7A0363012343617047001C0040B4
:1014200021B1026842F00402026004E002684FF653
:10143000FB731A400260704710B500F0C3FB10BD8B
:1014400010B501200549C8710020487214210448D4
:10145000FEF721FF00F02EFE10BD0000004001400D
:10146000480E002010B50548807C032805D100F007
:101470004DFE0248C07C0149887410BD480E002012
:1014800010B50648807C032807D00448807C0349B7
:10149000C8740320887400F075FE10BD480E00204B
:1014A00010B500F0A9FB10BD10B500F0DDFB10BDBC
:1014B00070B50020834988730846447C04F004001A
:1014C00018B1002048748049087004F0100028B159
:1014D00080207C49487400207B4908707A48007855
:1014E000002845D104F00100002841D00025082241
:1014F0007649002000F0FCF9002074498860084615
:10150000C08888810020C8810846007800F060000B
:1015100010B900F057F9054615B900F003FC05466F
:10152000002068498873012D04D0022D09D0032DB5
:1015300015D10DE0402063494874012062490870CC
:1015400014E040205F49487402205F4908700DE0B4
:1015500048205C49487400205B49087006E0602020
:101560005849487403205849087000BF00BF00BFA5
:1015700055480078012850D104F0020000284CD1D1
:101580005048447C04F0100018B104F00100002819
:1015900043D102244D4880894D490978884213DAA5
:1015A0004A4882898168802000F0DEF94748C08976
:1015B0004649898908444549C8810020888144F00A
:1015C0000804414908701BE040488168404802789F
:1015D000802000F0C9F93D4880683D4909780844F9
:1015E0003A4988600846808939490978401A37495C
:1015F00088810846C0893649097808443349C8813A
:101600003248C0893149C988884204D144F008046D
:1016100000202D4908702B4844742B48007802287C
:101620004FD12848447C04F00100002849D04024D0
:10163000264880892649097888420FDA234882891A
:101640008168002000F054F92048C0891F49898929
:1016500008441E49C881002088811BE01B4881681E
:101660001B480278002000F043F9184880681849A8
:101670000978084415498860084680891449097822
:10168000401A124988810846C089114909780844DE
:101690000E49C8810D48808988B944F0080400F0DB
:1016A00027FB032805D044F02004032006490870D6
:1016B00002E00020044908700020024988730148B4
:1016C000447470BD00400140C6000020480E002058
:1016D0008C33000810B507484078092806D101204E
:1016E00000F0DEFB08B1032010BD00BF00BF0020EA
:1016F000FAE70000480E002008B53148007800F0F5
:101700006000202839D12E4840780C2834D2DFE8F8
:1017100000F033060C16333333333320272D00F01B
:1017200089FB08B1012008BD26E02548C0880128B2
:1017300004D100F073FB08B10120F4E71CE020485D
:10174000C088012804D100F06BFB08B10120EAE752
:1017500012E0002000F0A4FB08B10220E3E70BE058
:1017600000F092FB08B10320DDE705E000F08EFBFE
:1017700008B10320D7E700BF20E01148007800F04F
:101780006000D8B90E484078062817D10C4AD178A5
:1017900010796A4600F0F8FA0949886008468068BE
:1017A00058B108468089BDF80010884203DDBDF8B5
:1017B0000000034988810120B5E700BF0020B2E79F
:1017C000480E002010B5314840780A285AD2DFE888
:1017D00000F0050F5916591D265930502B48C08866
:1017E000022804D100F014F908B1012010BD4AE02C
:1017F000002000F061F908B10320F7E743E0012081
:1018000000F05AF908B10320F0E73CE01F480078E7
:1018100020B900F037F908B10320E7E733E01B48AF
:101820000078802804D100F0BDF808B10120DDE780
:1018300029E01648007880281AD11448C088012869
:1018400016D11248807C20B1012803D002280FD184
:1018500008E000BF00200E49088008460B49886058
:101860000120C3E709481030084988600120BDE71E
:1018700009E00648007820B900F052F908B10320C9
:10188000B4E700E000BF00BF0020AFE7480E002033
:10189000C400002000F00F0159B1064A917300F016
:1018A00080021AB14022034B5A7402E08022014B9D
:1018B0001A75704700400140014601F00F0292B1D5
:1018C0000A48827301F0800030B10848407C00F083
:1018D000100040B1012070470448007D00F0200056
:1018E00008B10120F7E70020F5E7000000400140C3
:1018F00030B500F00F04064D05EB840304E01C78BE
:1019000001F8014B541EA2B2002AF8D130BD0000EC
:101910002040014000F00F0159B1064A917300F0D8
:1019200080021AB11022034B5A7402E02022014BAC
:101930001A75704700400140F0B504460E46174640
:101940003A463146204600F00FF804F00F053DB14D
:1019500004F0800020B103488573012001494874D8
:10196000F0BD00000040014030B500F00F04064D0E
:1019700005EB840304E011F8014B1C70541EA2B265
:10198000002AF8D130BD00002040014010B51421DC
:101990000248FEF780FC00F055FB10BD480E002009
:1019A0007047000008B51948C078012804D0022803
:1019B00008D0032816D10DE0684600F0DDF9134980
:1019C000886011E011498878694600F0C5F90F492F
:1019D000886009E00D498878694600F00FFA0B49E4
:1019E000886001E0002008BD00BF0848806808B991
:1019F0000020F8E705488089BDF80010884203DD23
:101A0000BDF80000014988810120ECE7480E002064
:101A100038B50020194908801948007800F01F00E7
:101A200020B1012819D0022820D117E01449087CE0
:101A3000694600F091F90446E07900F0400010B1E9
:101A400001200E4908800E48407C28B10B480088D0
:101A500040F00200094908800AE009E008480579D9
:101A60002846FFF729FF0549088001E0002038BD1E
:101A700000BF0248024988600120F8E7C400002046
:101A8000480E00200A48807800F07F010848807CDA
:101A900002280BD00748017019B10120044A907444
:101AA00002E00020024A9074012070470020FCE709
:101AB000480E00200040014070B5054617480078E8
:101AC00000F01F0010B1022824D10DE01348408817
:101AD000012808D115B11149487402E000200F49CE
:101AE0004874012070BD15E00C48408888B90B4847
:101AF000047904F00F0060B11DB1E0B2FFF70AFFF6
:101B000005E0E0B2FFF7C6FEE0B2FFF749FF0120B3
:101B1000E8E700BF00BF0020E4E70000480E002017
:101B200010B51D488478807C012802D002282CD171
:101B30000EE054B1204600F0EBFA40B116480474B0
:101B4000022015498874012010BD0120FCE720E027
:101B50004CB900201049087401208874002000F05E
:101B60001DF80120F0E70C48007CA0420AD0204676
:101B700000F014F8204600F0CBFA28B106480474AF
:101B80000120E1E70120DFE703E0204600F006F84E
:101B900000BF00BF0020D7E7480E00200849C979E0
:101BA00021F00201064AD1711146C97921F00401E0
:101BB000D1711146C97921F00801D1717047000037
:101BC0000040014010B5012148F22000FFF7A2F9C2
:101BD0000322D1024FF08040FEF7CAFF044AD1022F
:101BE0004FF08040FEF7CEFF06200249C87210BDBC
:101BF000030000200040014010B50E20002817DB34
:101C000000F01F0201219140154A430942F82310B8
:101C100000BF00BF00BFBFF34F8F00BF00BF00BFBA
:101C200000BF00BF00BFBFF36F8F00BF00BF00BF8A
:101C300000BF00210846FFF797F9FFF7EFF80948C2
:101C4000006820F01F0007490860FFF7DFF8002058
:101C5000FFF7B2F900214FF40070FFF71BF910BD38
:101C600080E100E09004014010B5012148F220001D
:101C7000FFF750F900224FF4C0514FF08040FEF7BB
:101C800081FF4FF088524FF480518804FEF77AFFAD
:101C90004FF480518804FEF795FF10BD00200149E4
:101CA000086070474000002070470000002007498E
:101CB0000860074908600749086007490860074944
:101CC0000860074908600749086070474400002021
:101CD000480000204C000020500000205800002048
:101CE000540000205C0000207047704770470000DF
:101CF00010B500240A48007800F07F0021280DD19B
:101D00000748007938B106480079012803D0044813
:101D10000079022802D1FFF7DDFC0446204610BD01
:101D2000480E002010B500240A48007800F01F007B
:101D300001280DD10748007938B1064800790128FB
:101D400003D004480079022802D1FFF7D5FC0446ED
:101D5000204610BD480E00200246012A08DA054838
:101D60008078044BDB7840EA032008800148704704
:101D70000020FCE7F72E00080146122008800148E9
:101D800070470000E52E0008034663B9212902D000
:101D9000222928D103E009201080144870474120EF
:101DA00010801348FAE7012B0DD1212902D02229F6
:101DB00019D104E0092010800C481930EEE7DC202E
:101DC00010800C48EAE7022B0DD1212902D02229EC
:101DD00009D104E00920108004483230DEE71820E1
:101DE00010800548DAE70020D8E70000092F000836
:101DF000B02D0008F12D0008CD2E00080246032A60
:101E000008D2054850F8220000780880024850F8AF
:101E1000220070470020FCE70800002000207047E7
:101E200002480349886001207047000060000020DC
:101E3000480E00201148007960B91048C078012888
:101E400008D10E48C088082804D10D480B49886085
:101E5000012070470948007902280DD10748C07851
:101E6000032809D10548C088B0F5807F04D1054812
:101E7000024988600120ECE70020EAE7480E0020D4
:101E80005E0100206F0B002001207047024880781F
:101E90000249087001207047480E002060000020B1
:101EA0002DE9F04106465B48007968B95948C07889
:101EB000022809D15748C088012805D156485549FC
:101EC00088600120BDE8F0815248007902287DD168
:101ED0005048C0780328FAD14E48C08840F608011F
:101EE0008842F4D126B94D484A4988600120E9E783
:101EF0004A4800780728EAD14848407832287DD1FE
:101F00004648807840B94648FEF730FD4548464986
:101F100008604348FEF742FD444F00253F48807863
:101F200007EBC0273D44002445E02846FEF71EFD90
:101F3000FEF70EFD002035E0210201EB80010831A3
:101F4000364A515C3A4A12681144394A11602102FA
:101F500001EB80010931314A515C354A1268114464
:101F6000334A1160210201EB80010A312B4A515C96
:101F70002F4A126811442E4A1160210201EB8001A0
:101F80000B31264A515C2A4A12681144284A1160D2
:101F9000210201EB80010831204A5258224941F8C0
:101FA0002020401C4028C7D32846FEF7F7FC05F543
:101FB0008075601CC4B2082CB7DB01201D49087075
:101FC000164880781549C978884201E01FE015E07D
:101FD00013D1012018490860104840790F49097948
:101FE00000EB01201249098889B2884205D10020FE
:101FF000114908600A48FEF7B9FC00BF074840785D
:10200000302802D10D480E49086001205AE700200F
:1020100058E70000480E002034000020670200202E
:1020200000680008123456780079014000700008FA
:10203000140000203600002018000020A5A5A55A95
:102040003C00002008B501210804FEF723FF012110
:102050004802FEF71FFF01214802FEF749FF002159
:102060004FF40070FEF744FF0120FEF7B1FF01209E
:10207000FEF7A2FF02200D49086001210520FEF7AE
:1020800073FF00200A49C872C87148720E208DF88B
:10209000000001208DF8010000208DF802000120D1
:1020A0008DF803006846FEF76FFE08BD404C014006
:1020B0000040014000200C4908600C4908600C49B0
:1020C00008600C4908600C4908600C4908600C491C
:1020D00008600C49086001200B4948700846C07A26
:1020E00040F00100C872704740000020440000200A
:1020F000480000204C000020500000205400002028
:10210000580000205C0000200040014070470000A3
:102110000146012931D11A4A907300209074082099
:102120001074402050740820507450741046C079C8
:1021300040F00200D07102209073002090740820BB
:102140001074402050740820507450741046C079A8
:1021500040F00400D0710320907300209074082098
:102160001074402050740820507450741046C07988
:1021700040F00800D071012070470020FCE700000B
:102180000040014010B500F0CBF810BD10B54FF481
:102190008020FEF7D7FA1D48006868B91C4800681F
:1021A00000F0040040B10120184908601848006898
:1021B00020F00400164908601448006801280DD179
:1021C0001348006800F0010040B102200F49086088
:1021D0000F48006820F001000D4908600B480068B6
:1021E000022812D10A48006800F0020068B10320FA
:1021F000064908600648006820F0020004490860AB
:1022000000200860232000F013F810BD74000020A7
:10221000444C014070B5054884798578067932468A
:1022200029462046FEF7D6FC70BD00000040014064
:10223000002817DB00F01F02012191400A4A4309E0
:1022400042F8231000BF00BF00BFBFF34F8F00BF95
:1022500000BF00BF00BF00BF00BFBFF36F8F00BF54
:1022600000BF00BF7047000080E100E010B501240E
:1022700072B60948807C02280BD10848006840B932
:10228000092207498220FFF757FB01200349086014
:10229000002462B6204610BD480E00205C000020DD
:1022A000BE01002010B52320FFF7C2FFFEF7B6FDE8
:1022B00002201A4908600120091F086000BF174862
:1022C0000830006800F001000028F8D00120134910
:1022D0002831086000BF11482C3000680328FAD16B
:1022E00001200E4918390860FEF790FD0220FEF724
:1022F00031FE0120FEF760FE01214802FEF7CAFD13
:1023000001210520FEF730FEFEF736FF40F267118F
:1023100040F2E730FEF7C6FF10BD00005004014058
:102320001CB500210846FEF71FFE00214FF4007087
:10233000FEF7B0FD0020FEF73FFE0020FEF70AFE8C
:10234000FEF76CFD002028490860274928390860FD
:10235000091F0860244940390860FEF757FDFEF761
:102360000BFF3B2140F2E730FEF79CFFFEF7C2F87F
:10237000FEF754FD18201C4918310860FEF746FD91
:1023800001210804FEF786FD4FF4706017490860CC
:102390000846006800F47060086001214FF40240B4
:1023A000FEF7B8FD4FF48020009000208DF8040067
:1023B00008208DF8050001208DF806006846FEF71C
:1023C000C7F900200A4908602320002809DB00F033
:1023D0001F02012191404209920002F1E022C2F85D
:1023E000001100BF1CBD000078040140444C0140B6
:1023F00074000020F0B50B460021002432BB284DAC
:102400006D78A3F1E0063543254E757057280FDC33
:10241000244D2D5C2909234D2D5C05F00F06012567
:10242000B540ECB21E4D6D5C25431D4E755435E034
:1024300000F0E005E02D31D1194D6D7800F00F0767
:102440000126BE403543164E757027E0012A25D17E
:10245000134D6D78A3F1E006B543114E7570572802
:102460000FDC104D2D5C29090E4D2D5C05F00F067B
:102470000125B540ECB20A4D6D5CA543084E75547C
:102480000CE000F0E005E02D08D1054D6D7800F07E
:102490000F070126BE40B543014E7570F0BD000028
:1024A000AE010020CE31000810B5012472B60948F3
:1024B000807C02280BD10848006840B910220749E7
:1024C0008220FFF739FA012003490860002462B630
:1024D000204610BD480E002048000020AE0100201C
:1024E00010B552B9084B13F81030084C6370064B06
:1024F00003EB40035B78A37005E0012A03D10023BE
:10250000024C6370A37010BD763200081C000020DE
:1025100010B5012472B60948807C02280BD1084806
:10252000006840B9082207498220FFF705FA012018
:1025300003490860002462B6204610BD480E002002
:10254000440000201C0000202DE9F84104460E46FE
:1025500017464FF000080025B7B906EB8400324952
:10256000085C324911F8008006EB84002E49085CB3
:102570002F490D5C2F4800EB840000F806802E48A0
:1025800000EB8400855508E02A4800EB840010F831
:102590000680294800EB8400855D012D01D0022DC5
:1025A00004D13A462946404600F0BCFB032D05D134
:1025B0003A4629464046FFF793FF32E0052D07D102
:1025C00033463A4629464046009400F031F928E067
:1025D000062D05D13A4629464046FEF7F7F920E098
:1025E000072D05D13A4621463046FDF753FF18E046
:1025F000082D05D13A4629464046FEF717FC10E063
:10260000092D05D13A4629464046FEF78DFB08E0E4
:1026100005F0E000E02804D13A4629464046FFF79D
:10262000E9FEBDE8F881000012300008420D0020EC
:102630002E0D0020560D00206A0D002010B501243B
:1026400072B60948807C02280BD10848006840B95E
:10265000082207498120FFF76FF90120034908602C
:10266000002462B6204610BD480E00204000002025
:102670005E01002070B50024002500260A205D4977
:1026800008705D4908705D4908705D49087008224E
:102690005C495D48FDF78EFD40B1FFF7CFFF28B9DB
:1026A000584859490A6802604968416050225149B6
:1026B0005148FDF77FFD002836D0082429E04E4818
:1026C000005D90B94B48005D5049085C05094948D8
:1026D000005D085C00F00F0101208840C6B2474849
:1026E000405DB0434549485511E04348005D4749C6
:1026F000085C05094048005D085C00F00F010120FE
:102700008840C6B23D48405D30433C494855601C56
:10271000C4B2502CD3DB00F0D3FAC0B950223649F2
:102720003448FDF773FD12E0502235493248FDF779
:1027300041FD60B9102232493048FDF73BFD30B110
:1027400010222F492D48FDF761FD00F0B9FA032052
:102750002F4908702F49087008222D492D48FDF790
:1027600029FD40B1FFF7D4FE28B9294829490A6854
:102770000260496841600A202749087027490870AB
:10278000102225492548FDF715FD38B1FFF78CFECD
:1027900020B9102221492048FDF738FD01202049A9
:1027A00008702049087008221D491E48FDF702FDE7
:1027B00040B100F069FA28B919481A490A6802605C
:1027C00049684160042018490870184908700922B6
:1027D00015491648FDF7EEFC50B1FFF747FD38B933
:1027E000114812490A6802604A684260097A017217
:1027F00070BD0000A70D0020C70100207E0D002045
:10280000F70D0020990000205E010020CE31000865
:10281000A10000201C0000208E0D0020AE01002031
:10282000A9000020240000209E0D0020BE010020F1
:10283000F0B50446059D002A2ED12B48007858B9E2
:102840002A48047005EBC300294E305C294E3070D5
:102850000120294E307046E00020274E3070224E75
:102860003070264E3070012007E0254E365C16B1E0
:102870000126244F3E70461CF0B21028F5DB0120E3
:1028800007E0214E365C16B101261E4F3E70461CF5
:10289000F0B20828F5DB26E0012A24D11B48007895
:1028A000012820D10020194E3070134E30700E4E8A
:1028B0003070124E3070012007E0114E365C16B1B8
:1028C0000126104F3E70461CF0B21028F5DB0120A7
:1028D00007E00D4E365C16B101260A4F3E70461CCD
:1028E000F0B20828F5DBF0BDB4000020B2000020F3
:1028F0001230000897000020B3000020B50000202F
:1029000017020020BA0000202C000020B700002091
:10291000FEF732FC4FF44070FEF76EFAFEF7C4FD8E
:10292000FDF726FEFDF7ECFEBB490870BB48806949
:10293000BB4988420AD0FDF7D7FE38B9B6480078BF
:10294000012803D0B7480078012809D10020B349F5
:102950008861FDF7FFFDFFF719F8FEF76DFD0BE04D
:10296000B148B24908600146086880F3088800BF92
:102970004868804700BFFEE7FDF7D0FE4BE1AC485A
:102980000068002830D00020A9490860FDF72AFF20
:10299000A8480078012805D10020A7494870887010
:1029A000A4490870A548007801280CD10020A3494B
:1029B0000870A3490870E9209F494870002088707A
:1029C00001209C4908709E48007801280CD1002005
:1029D0009A4908709A490870EA209749487000207F
:1029E00088700120934908709648006814283BD3EA
:1029F0000120FDF73DFDFEF745F9002700242EE0FC
:102A0000914830F81400914931F8141080EA010817
:102A100000251BE08E4810F815100120884086B272
:102A200008EA060088B1884830F81400304030B118
:102A3000E9B2E0B20022FFF787FD012705E0E9B225
:102A4000E0B20122FFF780FD00276D1C042DE1DBC1
:102A50007D4830F814007D4921F81400641C052CD1
:102A6000CEDB0020774908607A48807C03282ED18D
:102A700072B67848807C032828D1E7B1FFF712FCB2
:102A80007548407840F00400734948707348006806
:102A90004FF47A71B0FBF1F000EB80004400204667
:102AA000FEF74CFB6C48407820F004006A494870FF
:102AB000FEF7D8FC0AE06A480068032806D1002027
:102AC00067490860FFF7EEFBFEF7CCFC62B665488D
:102AD0000088402802DC4020624908806148008864
:102AE000B0F5656F03DB4FF465605E4908805D48B3
:102AF00000884038242190FBF1F05B4908805B4856
:102B000000880988884212D0042059490870F820AA
:102B10004870322088700020C870534800780871CF
:102B2000002048718871C8710872FFF79FFB4E48FA
:102B300000884E490880FFF79DFD4E480078012827
:102B40001ED100204B490870042049490870F82024
:102B500048703220887048480068012806D100205B
:102B600045490860EE204249C87002E0AA20404969
:102B7000C87000203E498871C8710872FFF776FB63
:102B80003E4800683E49884245D1344800684FF4C9
:102B90007A71B0FBF1F0642100FB01F42046FEF7EE
:102BA000CDFAFEF77DFCFEF77FFC00240CE02B48FD
:102BB00000684FF47A71B0FBF1F0642100FB01F57D
:102BC0002846FEF7BBFA641C142CF0DB00201349E6
:102BD00088612A49086000BF00BF00BF00BF00BF76
:102BE000BFF34F8F00BF00BF00BF1048001D00683B
:102BF00000F4E06023490843001D0C49091D0860EA
:102C000000BF00BF00BFBFF34F8F00BF00BF00BFBA
:102C100000BF00BFFDE7B2E6010000200000014058
:102C2000EB9C374A790000200070000808ED00E0B6
:102C300070000020000000201C0000207C0000200C
:102C40007D00002064000020100D0020C80000203E
:102C5000A82D0008480E002000400140C0000020C0
:102C600074000020800000200200002004000020EA
:102C7000BE01002036000020180000203C0000208B
:102C8000A5A5A55A0000FA0510B5012472B6094899
:102C9000807C02280BD10848006840B90822074907
:102CA0008220FEF749FE012003490860002462B635
:102CB000204610BD480E00204C00002024000020BB
:102CC0001FB501240020009001900290039072B67D
:102CD0001048807C022818D10F480068A8B900204D
:102CE00008E00E49095C0E4A125C11430DF8001011
:102CF000411CC8B21028F4DB102269468220FEF77E
:102D00001BFE012004490860002462B6204604B07E
:102D100010BD0000480E00205000002017020020C7
:102D20007E0D002070B50346F2B9E02B0BDBE72BDC
:102D300009DC1C4C2478A3F1E0050126AE403443A5
:102D4000184D2C702CE002200BE0164C245C9C42A9
:102D500000D108E0134C245C14B9124C235402E057
:102D6000401C0828F1DB1BE0012A19D1E02B0BDB0A
:102D7000E72B09DC0B4C2478A3F1E0050126AE40DB
:102D8000B443084D2C700BE0022007E0054C245C96
:102D90009C4202D10024034D2C54401C0828F5DB32
:102DA00070BD00005E010020070001000A000B005A
:102DB00005010906A101050719E029E7150025010C
:102DC0007501950881027508950181010508750155
:102DD00095051901290591027503950191010507D2
:102DE00019002AFF00150026FF00750895068100CE
:102DF000C00600FF0A00FFA1018504150026FF00A0
:102E0000093075089508810209319102C005010950
:102E100002A10185010901A1000509190129051572
:102E20000025017501950581027501950381010554
:102E3000010930093116018026FF7F751095028146
:102E40000609381581257F750895018106050C0A4C
:102E5000380295018106C0C0050C0901A101850356
:102E600019002AFF02150026FF7F751095038100C7
:102E7000750895018101C00600FF0901A1018506C1
:102E8000150026FF000930950375088102C0050171
:102E90000906A101850A050719E029E715002501A2
:102EA0007501950881021900296715002501750132
:102EB000956881021987298B0990099115002501D0
:102EC000750195078102750195018101C00601FF19
:102ED0000901A1018507150026FF00092075089644
:102EE0000708B102C012010002000000400F320DBD
:102EF000B002100102000109025400030100A032D7
:102F00000904000001030101000921100100012250
:102F1000410007058103400001090401000103018C
:102F2000010009211001000122DC00070582034095
:102F30000001090402000103000200092110010040
:102F4000012218000705830340000104030904104F
:102F5000035500530042002000480049004400107F
:102F60000355005300420020004400460055000075
:102F700008001000200040008000E1141A08151815
:102F80000C12134D2B392D171C302A2F64041607F1
:102F9000090D0E0F335029E2000A0B005134001DB9
:102FA0001B0619103637284FE34B5205114C3238A7
:102FB000E0354EE622232E312DE51E1F202124254B
:102FC00026270101010101010101010101010101A6
:102FD00001010101010101010101010101010101E1
:102FE00003010101010101010101010101010101CF
:102FF00001010101010101010101010101010101C1
:1030000001010101010101010101070001000A00A4
:103010000B00000102030405060708090A0B0C0D4A
:103020000E0F101112130101010101010101010133
:1030300001030101010101010101535455565F6073
:1030400061575C5D5E02595A5B586200006306037B
:10305000030303030303030303030101030000004D
:103060000000010101010101010101010101010152
:1030700001FFFFFFFFFF0101060101010101010145
:103080000101010101FFFFFFFFFF01010601010135
:10309000010101010101010101FFFFFFFFFF020129
:1030A00001060101010101010101020601FFFFFF0B
:1030B000FFFF060606FFFF01FFFF060606FF0606E6
:1030C00006FFFFFFFFFF350F08100006070105028E
:1030D0000403454602FFFFFFFFFF293A3B3C3D3E0C
:1030E0003F4041424344452A4CFFFFFFFFFF2B1462
:1030F000020815171C180C12132F30314BFFFFFF5D
:10310000FFFF39040107090A0B0D0E0F3334322873
:103110004EFFFFFFFFFFE0641D0606190511103684
:103120003738E5084DFFFFFFFFFF0A0C0BFFFF2CB0
:10313000FFFF0B000AFF030904FFFFFFFFFFE1147D
:103140001A0815180C12134D2B392D171C302A2F65
:1031500064041607090D0E0F335029E2000A0B0014
:103160005134001D1B0619103637284FE34B52050A
:10317000114A3238E0354EE63E3F453144013A3B94
:103180003C3D4041424301010101010101010101B6
:10319000010101010101010101010101010101011F
:1031A0000103010301010101030101010101010109
:1031B00001010103010103010101010103010101F9
:1031C0002121210121222121212121212121141527
:1031D000161724252627303132333435363740410F
:1031E00042434445464750515253545556576061E7
:1031F00062636465666770717273747576778081D7
:103200008283848586879091929394959697A0A1C6
:10321000A2A3A4A5A6A7B0B1B2B3B4B5B6B7C0C1B6
:10322000C2C3C4C5C6C7E0E1E2E3E4E5E6E7404E59
:10323000415C005E504C212031104251001122307F
:103240003252431E2E122355335A444D591324250E
:103250003435454615142726373648471617282C87
:103260003800493E1C18291D395D4A3C2D192A2B6E
:103270003A3B3D4B1B1A8301CD00E200E900EA0016
:10328000B700B600B5002302270226022402250259
:103290002A022102940192018A0100002DE9F04FD7
:1032A0003248032181620C21C162DFF8C4C00021D1
:1032B000CCF8001008464FF47A76401CB042FCDB94
:1032C0000122CCF800200020401CB042FCDB294841
:1032D000036843F08003036026482C30036843F4FE
:1032E0002063036091461046224A3C3210608A46B1
:1032F0000846214908602148D0F840031E4F0025A8
:10330000C0F307514FF0FF3B3F1F00225C461046C1
:103310003B685FEAC07806D1A34201D1012400E0F6
:10332000002422441C46401C1428F1DB022A1BD92D
:10333000102901D9103900E000210D48001F026852
:1033400022F07F6242EA01520260CCF800A0002025
:10335000401CB042FCDBCCF800900020401CB04286
:10336000FCDB6D1C052DD0DBBDE8F08F00000140BB
:1033700038040140200C014004B8004000F0FF1F59
:10338000086000BF08680006FCD4704740000000D9
:10339000B033000800000020C8000000140100083D
:1033A00078340008C8000020F8120000300100083E
:1033B00000000000000000004B2F00084F2F000805
:1033C0005F2F000800000000000000000000000067
:1033D00000000000000000000000000000000000ED
:1033E00000000000000000000101000000000000DB
:1033F00000000000000000000000000000000000CD
:1034000000000000000000000000000000000000BC
:1034100001000000000000000000000000000000AB
:10342000000000000000000000000000000000009C
:10343000000000000000000000000000000000008C
:10344000000000000000000000000000000000007C
:10345000000000000000000000000000000000006C
:103460000000000000000000000000000A00000052
:0834700000A24A040000000064
:10700000E8490020ED710008F5710008F7710008EB
:10701000F9710008FB710008FD7100080000000014
:10702000000000000000000000000000FF710008E8
:107030000172000800000000037200089D1501089D
:10704000077200080772000807720008077200083C
:10705000077200080772000807720008077200082C
:10706000077200080772000807720008077200081C
:107070000772000829770008252C0108077200080C
:1070800007720008077200080772000807720008FC
:1070900007720008D116010807720008077200087D
:1070A00007720008077200080772000807720008DC
:1070B0000772000807720008E51A01080772000845
:1070C000077200080772000807720008712B010898
:1070D000077200080772000800F002F800F05CF880
:1070E0000AA090E8000C82448344AAF10107DA4523
:1070F00001D100F051F8AFF2090EBAE80F0013F019
:10710000010F18BFFB1A43F00103184740F20000BB
:1071100060F200000A444FF0000C10F8013B13F03D
:10712000070408BF10F8014B1D1108BF10F8015BE0
:10713000641E05D010F8016B641E01F8016BF9D1D3
:1071400013F0080F1EBF10F8014BAD1C0C1B09D12A
:107150006D1E58BF01F801CBFAD505E014F8016B9C
:1071600001F8016B6D1EF9D59142D6D3704700002E
:107170000023002400250026103A28BF78C1FBD840
:10718000520728BF30C148BF0B6070471FB500F0E1
:1071900062F81FBD10B510BD00F08CF91146FFF765
:1071A000F5FF0CF079FF00F0AAF903B4FFF7F2FF46
:1071B00003BC00F0AFF900000B49D1F800C04A68E9
:1071C0005CF8043B1068184442F8040B8C4528BF57
:1071D000A1F1DC0C8A4228BFA1F1DC02C1F800C099
:1071E0004A6020F0004070478044002009488047F2
:1071F00009480047FEE7FEE7FEE7FEE7FEE7FEE799
:10720000FEE7FEE7FEE7FEE704480549054A064BB0
:107210007047000099160108D9700008E844002062
:10722000E8490020E8450020E84500200B4910B55A
:10723000A1F17C020A4CC2E93712372106E000EBCB
:10724000104342F82130074B00FB03400B1EA1F115
:107250000101F4DC10BD0120E8E70000204400201B
:10726000E119D666CD0D010040EA010310B59B0778
:107270000FD1042A0DD310C808C9121F9C42F8D0A0
:1072800020BA19BA884201D9012010BD4FF0FF3051
:1072900010BD1AB1D30703D0521C07E0002010BD67
:1072A00010F8013B11F8014B1B1B07D110F8013BF3
:1072B00011F8014B1B1B01D1921EF1D1184610BDD4
:1072C00040EA0103024630B59B0710D14FF001346C
:1072D00000E008C208C91D1B9D4315EAC41FF8D071
:1072E00013F0FF0102F8011B0DD01B0AF8E711F89B
:1072F000013B002B02F8013B05D011F8013B002BAC
:1073000002F8013BF3D130BD032A40F2308010F087
:10731000030C00F0158011F8013BBCF1020F624430
:1073200098BF11F801CB00F8013B38BF11F8013BC1
:10733000A2F1040298BF00F801CB38BF00F8013B6E
:1073400011F0030300F07C80083AC0F0088051F887
:10735000043B083A51F804CBA0E80810F5E7121DE9
:107360005CBF51F8043B40F8043BAFF30080D20708
:1073700024BF11F8013B11F801CB48BF11F8012BD4
:1073800024BF00F8013B00F801CB48BF00F8012BF7
:1073900070474FF000020429C0F0128010F0030C77
:1073A00000F01B80CCF1040CBCF1020F18BF00F8F8
:1073B000012BA8BF20F8022BA1EB0C0100F00DB8A7
:1073C0005FEAC17C24BF00F8012B00F8012B48BF05
:1073D00000F8012B70474FF0000200B513469446A9
:1073E0009646203922BFA0E80C50A0E80C50B1F11D
:1073F0002001BFF4F7AF090728BFA0E80C5048BF31
:107400000CC05DF804EB890028BF40F8042B08BFCE
:10741000704748BF20F8022B11F0804F18BF00F8CA
:10742000012B704770477047704710B500F03AF86D
:10743000006810BD10B5044600F034F8046010BDBB
:1074400010B5203AC0F00B80B1E81850203AA0E8FF
:107450001850B1E81850A0E81850BFF4F5AF5FEA33
:10746000027C24BFB1E81850A0E8185044BF18C9E6
:1074700018C0BDE810405FEA827C24BF51F8043B8D
:1074800040F8043B08BF7047D20728BF31F8023BE1
:1074900048BF11F8012B28BF20F8023B48BF00F875
:1074A000012B70470048704788440020004870470F
:1074B000884400207546FFF7F9FFAE46050069468F
:1074C000534620F00700854618B020B5FFF79CFE14
:1074D000BDE820404FF000064FF000074FF00008D5
:1074E0004FF0000B21F00701AC46ACE8C009ACE856
:1074F000C009ACE8C009ACE8C0098D46704710B5BA
:107500000446AFF300802046BDE81040FFF74DBEB3
:107510007047000001491820ABBEFEE726000200BC
:1075200010B5012148F6600005F036FE4FF04052DC
:1075300001211E4803F05CF94FF0405201218807F9
:1075400003F056F905F0D6FA05F09CFB012000F097
:107550006FFA05F08FFB00201549087048704FF452
:10756000602048600020886001200873084600F011
:1075700085F901214FF4087000F054F9012000F062
:1075800071F8012000F05CF800F048FA00BF00F04C
:1075900093F80028FBD100F025FA00BF00F0B8F8FE
:1075A0000028FBD1012000F027FA10BD00040040A4
:1075B0000013002010B5184800681849097888425F
:1075C00028D30020144908601548007810BB1548DE
:1075D0000078F8B9144800880A280BDB002012490B
:1075E000088001201149087001221146002000F096
:1075F00089F907E000200D49087001221146082092
:1076000000F080F908480088401C074908800120E4
:1076100000F0F2F910BD00004C020020AC02002086
:1076200050000020510000202C0000202E000020DF
:1076300000210112CA43014B1A607047003C004010
:1076400030B10749096841F00101054A116005E0C0
:107650000349096821F00101014A116070470000E7
:10766000083C004030B10749096841F48011054ADF
:10767000116005E00349096821F48011014A116095
:1076800070470000083C004030B50146A1F12000E1
:10769000C0F30B0285233524101942F2107568439C
:1076A0001D44B0FBF5F2B2F5805F01D2104601E057
:1076B00040F6FF7080B230BD00200449096801F037
:1076C000040109B1012000E000207047083C00409F
:1076D00030B501460020002300220B120B4C246819
:1076E000CDB204EA0502094C5034246801F00305C8
:1076F00004EA05442243054C241F24681C4014B1AD
:107700000AB1012000E0002030BD0000043C004030
:1077100000200449096801F0080109B1012000E0D6
:1077200000207047083C004070B5002400254FF44D
:107730000870FFF7CDFF00285CD04FF40870FFF70A
:1077400077FF2D49096888B2FFF79EFF2B49088013
:107750002B48007838BB084600882A492A4A127804
:1077600021F8120000BF06E0264830F8150020443A
:1077700084B2681CC5B2082DF6DB2046E11704EB85
:107780005171C1F3CF0420480078401C1E49087095
:1077900008460078082801D1002008701B480480A2
:1077A0001B48048026E0154800881A491A4A1278B6
:1077B00021F81200002506E0164830F81500204494
:1077C00084B2681CC5B2082DF6DB2046E11704EB35
:1077D0005171C1F3CF0410480078401C0E49087065
:1077E00008460078082801D1002008700B48048062
:1077F0000B48048070BD00004C3C0040900200200B
:107800002E000020A01300208E02002086020020FF
:107810008A020020B01300208F020020880200207E
:107820008C02002010B502460020D0B289B1124B64
:107830001B6800F0E00423430F4C23600E4B5033D1
:107840001B6800F0030443EA04430B4C50342360EC
:1078500010E0094B1B6800F0E004A343064C2360D2
:10786000054B50331B6800F0030423EA0443024C29
:107870005034236010BD0000043C00407FB5054635
:1078800000240026684605F0B7FC1A490298B0FBB0
:10789000F1F00121C1EB5000C4B2402040EA0420C5
:1078A0001549086014485038046814480440287882
:1078B00044EA0024104850380460001D0468104851
:1078C0000440D5E901100843697840EA41000443C7
:1078D00009484C38046008482838046824F47004C7
:1078E000287B401EC0B2064344EA065402482838AA
:1078F00004607FBD808D5B00543C0040FFFEF0FFC4
:10790000FDF7F1FF70B503460C4600200021092B5E
:1079100013DD334D2868A3F10A0505EB450607255D
:1079200005FA06F18843A3F10A0505EB450502FABD
:1079300005F108432A4D286010E0294D2D1D2868C7
:1079400003EB4306072505FA06F1884303EB4305DD
:1079500002FA05F10843224D2D1D2860072C13DA89
:107960001F4D28352868651E05EB85061F2505FA7D
:1079700006F18843651E05EB850503FA05F108430A
:10798000174D283528602AE00D2C13DA144D2435C4
:107990002868E51F05EB85061F2505FA06F18843D3
:1079A000E51F05EB850503FA05F108430C4D243569
:1079B000286014E00A4D20352868A4F10D0505EB78
:1079C00085061F2505FA06F18843A4F10D0505EB90
:1079D000850503FA05F10843014D2035286070BD87
:1079E0000C3C00400348006840F008000149086072
:1079F00070470000083C004030B10749096841F475
:107A00008001054A116005E00349096821F48001FD
:107A1000014A116070470000083C004003480068BC
:107A200040F004000149086070470000083C004035
:107A300001490860704700008091204270B50446FB
:107A40000D461646B6B9F72025494870254800EB83
:107A50008500005D802141EA10102149887021488D
:107A600000EB8500005D00F00F00C8701E48007834
:107A7000087117E0012E15D1F720194948701948EF
:107A800000EB8500005D002141EA10101449887068
:107A9000144800EB8500005D00F00F00C87012482C
:107AA000007808711148007840B904200C4908702A
:107AB000042215210A480DF0FBF810E004200849C3
:107AC00008700422152106480DF0F2F850210848EC
:107AD000FFF75FFC0122152105480DF0E9F870BDA4
:107AE000420D0020085E0108200000201F00002039
:107AF000E20C002008B5274800780A2824D18A2003
:107B00002549487025480078887025480078C87055
:107B100088200871002048712248007810B9072099
:107B2000087002E004201C490870042215211A483C
:107B30000DF0BEF850211C48FFF72BFC0122152147
:107B400019480DF0B5F824E0124800780F2814D138
:107B500016490978491E164A1278521E032303FB60
:107B600002110A0213490978323102EB01304FF455
:107B70008072094909F05AFC0BE00F480078009028
:107B800004480378044A094801780948007808F055
:107B900087F908BD11020020FD110020140000200B
:107BA000350000201F000020E20C002013020020FE
:107BB00012020020B90200200D02002000B5C3B05F
:107BC0004FF4807103A8FFF706FC424800780128B3
:107BD0000BD14148007800903E4803783F4A404826
:107BE00001784048007808F083FC3A480078022881
:107BF0000DD1394800783749097803AB374ACDE9C8
:107C00000010374801783748007808F0DDFB31482C
:107C1000007803280BD13048007800902D48037875
:107C20002E4A2F4801782F48007808F02BFC29486D
:107C3000007804280BD12C48007800902548037860
:107C4000264A274801782748007808F067FB214832
:107C5000007805280BD1204800781E4909781F4A72
:107C6000CDE90010D178907803AB08F01FFD1948DA
:107C7000007806280BD11848007816490978174A69
:107C8000CDE90010D178907803AB08F073FC11486F
:107C90000078072801D10BF027FA0E480078082851
:107CA00002D10E4808F0A0FD0A48007809280BD13F
:107CB0000948007807490978084ACDE90010D178C9
:107CC000907803AB08F0B2FD00200249087043B081
:107CD00000BD0000110200200D020020FD10002058
:107CE00013020020120200200E02002008B501201D
:107CF00015490860AE232F220021032000F078F8F8
:107D00000A200CF01FFCB12300221146032000F0D2
:107D10006FF80A200CF016FC4023012200210320FA
:107D200000F066F8FF20D8230022022100900320F3
:107D300000F036F80020D8230246012100900320ED
:107D400000F02EF808BD0000BC0200422DE9F0470B
:107D500081460C4615461E46089F4FF480510F4839
:107D600002F06FFD04F00701A02242EA410008F092
:107D700073F9284608F070F94FF0000805E017F88D
:107D8000010B08F069F908F10108B045F7D34FF489
:107D90008051024802F058FDBDE8F0870004004021
:107DA0002DE9F04781460C4615461E46DDF8208039
:107DB0004FF480510D4802F044FD04F00701A02269
:107DC00042EA410008F048F9284608F045F9002742
:107DD00003E0404608F040F97F1CB742F9D34FF466
:107DE0008051024802F030FDBDE8F08700040040F9
:107DF0002DE9F04107460C4615461E464FF48051CA
:107E00000B4802F01EFD04F00701A02242EA4100E7
:107E100008F022F9284608F01FF9304608F01CF94E
:107E20004FF48051024802F00FFDBDE8F0810000E0
:107E300000040040F02927D1A0F156020E2A20D2DA
:107E4000DFE802F009071F1711150D130B1B0F199F
:107E50001F1D152017E0172015E0022013E0012058
:107E600011E008200FE009200DE007200BE01320AF
:107E700009E0142007E0112005E0122003E04C2067
:107E800001E0002000BF1AE0F1290AD1512803D0F7
:107E9000522803D1122003E0112001E0002000BF8E
:107EA0000DE0F5290AD1512803D0522803D114201E
:107EB00003E0132001E0002000BF00E00020704735
:107EC00010B5012148F2E00005F066F902F002FD6C
:107ED00000F016FF02F06CF8FFF722FB05F0C8F87F
:107EE00040F26711C72009F033FDFFF7FFFE10BD18
:107EF00010B56748007858B966480078664909782F
:107F0000884204DB0020634908700BF0F1FFBEE0FB
:107F100062480088B0F57A7F7EDB00205F490880E8
:107F20005F480078032832D05D48007806282ED0BC
:107F30005B48007802282AD05A4890F8FA010128B4
:107F400018D10220574981F8FA010020C1F8FC013C
:107F50000521544890F8892100F5C5708154514895
:107F600090F88901401C4F4981F88901012081F86E
:107F700024028CE04B48D0F82001B0F57A7FC6D3BC
:107F800000204849C1F820010CF048FF7FE0464836
:107F90000078012818D10020434908705021434837
:107FA000FFF7F7F90122152140480CF081FE404807
:107FB00000210160416002203D4908700222152124
:107FC0003B480CF075FE62E03A480078012824D165
:107FD0003948008808BB002036490870042037491A
:107FE0000870FC2048703648007888700020C870FF
:107FF000087148718871C8710872042215212F48D0
:108000000CF056FE50212948FFF7C3F90122152133
:1080100026480CF04DFE3AE00FE02A48007801288F
:1080200035D0072028490870284800784870072272
:10803000152125480CF03CFE29E01E480078012857
:1080400023D11D48008800BB00201A490870042075
:108050001A490870FC2048701D480078887000207C
:10806000C870087148718871C8710872042215219E
:1080700012480CF01DFE50210C48FFF78AF901222E
:1080800015210A480CF014FE01E000F0B9F910BD0A
:108090001F00002004000020C90200206C02002004
:1080A000B6090020300A0020B4090020E20C0020AC
:1080B000F40100204F0000206E020020420D00203D
:1080C0002A0A00209C090020F40F00201400002040
:1080D0002B0A0020704770477047704770470000B8
:1080E00000B587B0182101A8FFF775F9BA480088D4
:1080F00008B107B000BDB9480078012800D1F8E701
:10810000B74890F8110200280ADD01200CF01AFA95
:10811000B34890F81102401EB14981F81102E8E716
:10812000B0480088B0490988884275D0AD480088B9
:10813000C0EBC00000EB4000AC49085C05286CD0E7
:1081400008DC01280DD0022871D003287BD0042838
:1081500076D1EEE0072874D0132873D01428F7D115
:1081600000E1152101A80CF005FA9DF804008DF836
:10817000050000208DF804009D480188491C9D4899
:10818000FFF707F900209A4908800120944981F8F7
:108190002002002081F8210281F8220281F82302C6
:1081A000012101A800F0DAFA3AE08D4890F82102A6
:1081B000182835DB8A4890F8230238B9012088490D
:1081C00081F82302112008F0E1FB07E00020844938
:1081D00081F82302012101A800F0C0FA00208049A3
:1081E00081F82102084690F82202401C81F8220200
:1081F000084690F82202C82812DB4FF480417E48DE
:1082000002F01FFB4FF47A700CF09CF94FF48041A0
:10821000794802F019FB08E0DCE01DE007E012E01D
:108220006F4890F820020128BFD000BFACE01521B4
:1082300001A80CF09FF9022101A800F08FFAA3E039
:10824000A1E06DE063E0152101A80CF093F9032192
:1082500001A800F083FA97E0152101A80CF08AF933
:1082600063480188491C6348FFF793F80020604980
:10827000088001205A4981F82002002081F821025B
:1082800081F8220281F82302052101A800F066FA94
:1082900036E0534890F82102182831DB504890F816
:1082A000230238B901204E4981F82302192008F031
:1082B0006DFB07E000204A4981F82302052101A84F
:1082C00000F04CFA0020464981F82102084690F857
:1082D0002202401C81F82202084690F82202C82897
:1082E0000EDB4FF48041444802F0ABFA4FF47A7051
:1082F0000CF028F94FF480413F4802F0A5FA04E061
:10830000374890F820020128C3D000BF3CE0152177
:1083100001A80CF02FF9032101A800F01FFA33E0A7
:10832000152101A80CF026F99DF8050000F030F9A0
:108330002AE0152101A80CF01DF904210DF105001A
:1083400000F092FA0C200BF071FA2548D0F82001C9
:10835000B0F57A7F05D300202149C1F820010CF047
:108360005DFD11E0152101A80CF004F91C48D0F8BE
:108370002001B0F57A7F05D300201949C1F820010A
:108380000CF04CFD00E000BF00BF00201449C1F814
:1083900020010C2010490880114890F81E02002886
:1083A00009DD0F4890F81E02401E0D4981F81E029B
:1083B0001E2081F811020A4890F81F02002809DDEA
:1083C000074890F81F02401E054981F81F023C2013
:1083D00081F8110200BF8CE6BC0900204700002094
:1083E000300A0020B2090020B0090020A03000208F
:1083F000000A00204A4100200004004070470000AD
:1084000010B5114800780B281BD2DFE800F0061ADF
:10841000090C1A1A111A1A141700FFF75FFE11E05F
:10842000FFF758FE0EE0FFF75BFEFFF755FE09E091
:10843000FFF753FE06E0FFF7E1FF03E0FFF74BFE17
:1084400000E000BF00BF10BDB609002038B50346EC
:10845000284C247894B9C3EB03146400642594FB7E
:10846000F5F4E3B2C1EB0114640094FBF5F4E1B25E
:10847000C2EB0214640094FBF5F4E2B2002035E094
:108480001D4C245C1D4D2C5D8DF800401A4C245C65
:108490001B4D2C5D8DF80140174C245C194D2C5D53
:1084A0008DF80240144C245C174D2C5D8DF8034070
:1084B0009DF80040012C09D19DF80140134D2B552A
:1084C0009DF8024029559DF803402A559DF800402B
:1084D000022C09D19DF801400D4D2B559DF802400D
:1084E00029559DF803402A55441CE0B20E28C7D3F5
:1084F00038BD0000B902002089620108405E010811
:108500006A5E0108945E0108BE5E010866140020E0
:108510003E15002070B50024002500BF06E010487D
:10852000005D08B1012503E0601CC4B2082CF6DB35
:1085300000BF012D12D1002404E00021084801559C
:10854000601CC4B2082CF8DB0A200BF06FF9012183
:10855000034800F003F90A200BF068F970BD000031
:10856000E80A002010B54121084841714421817179
:10857000C171522101723F2141720D2181720A2184
:10858000C1720A200CF00CFC10BD00000841002054
:1085900010B5044642210C4841714121817154219A
:1085A000C171017245214172522181725921C172FA
:1085B0003D21017344730D2181730A21C1730E2083
:1085C0000CF0EEFB10BD00000841002010B5432167
:1085D000074841714F2181714E21C17101720D21F6
:1085E00041720A21817209200CF0DAFB10BD0000F3
:1085F0000841002010B54321084841714F21817185
:108600004E21C17101723F2141720D2181720A21F7
:10861000C1720A200CF0C4FB10BD0000084100200C
:1086200010B544210A484171492181715321C1711A
:10863000432101724F2141724E218172C1720D217D
:1086400001730A2141730C200CF0AAFB10BD00003D
:108650000841002010B502200D4981F81E01442177
:108660000C484171492181715321C171432101722B
:108670004F214172562181724521C17252210173ED
:108680000D2141730A2181730D200CF089FB10BD6F
:10869000300A00200841002010B50446412120483E
:1086A0004171552181715421C1714F2101725321B2
:1086B00041724C2181724521C17201735021417375
:1086C0003D218173012C13D14521C1734E210174C9
:1086D00041214174422181744C21C17445210175AD
:1086E0000D2141750A21817515200CF059FB15E00B
:1086F00044210B48C1734921017453214174412124
:1087000081744221C1744C210175452141750D21AF
:1087100081750A21C17516200CF042FB10BD0000C6
:108720000841002010B544210B4841714521817159
:10873000C17150210172532141724C218172452136
:10874000C1720173502141730D2181730A21C173DC
:108750000E200CF025FB10BD0841002070B5054629
:108760000E46002441203E49887054213C48C17087
:108770002B21017148214171492181714421C1712D
:108780003D2101724672012E1ED1012411E02A5DA5
:10879000E01D3349891C0A54295D32480155005DAA
:1087A000532804D13C202F49B83981F81102601CAC
:1087B000C4B2082CEBDB0D21294841740A218174D5
:1087C00011200CF0EDFA4AE0022E1DD1012406E042
:1087D0002A5DE01D2249891C0A54601CC4B2032C86
:1087E000F6DB0A2405E000211D48801C0155601CB1
:1087F000C4B20F2CF7DB0D21194841740A21817492
:1088000011200CF0CDFA2AE0052E13D1012406E048
:108810002A5DE01D1249891C0A54601CC4B2102C48
:10882000F6DB0D210E4841760A21817619200CF0E5
:10883000B7FA14E0032E12D1012406E02A5DE01DF0
:108840000749891C0A54601CC4B2082CF6DB0D21B0
:10885000034841740A21817411200CF0A1FA70BD03
:1088600008410020E80A002070B505460E460024A5
:1088700041201349887054211148C1702B21017186
:10888000482141714F2181715321C17154210172DD
:108890003D21417200BF07E02A5D04F1080008494C
:1088A000891C0A54601CC4B2142CF5DB0D21044849
:1088B00041770A2181771D200CF072FA70BD00000B
:1088C0000841002010B504464B210F484171452155
:1088D00081715921C171422101724F21417241219F
:1088E00081725221C172442101733D21417304F10F
:1088F0003000C1B2044881730D21C1730A21017493
:108900000F200CF04DFA10BD0841002010B54B218E
:108910000C484171452181715921C1714221017277
:108920004F214172412181725221C1724421017350
:108930003F2141730D2181730A21C1730E200CF078
:108940002FFA10BD0841002010B54C210B48417191
:10895000452181714421C17150210172412141722F
:10896000472181724521C1723F2101730D2141735D
:108970000A2181730D200CF013FA10BD084100206C
:1089800010B54C2108484171492181715321C171B1
:10899000542101723F2141720D2181720A21C1725D
:1089A0000A200CF0FDF910BD0841002010B54E2141
:1089B00013484171412181714D21C17145210172DD
:1089C0003D214172472181724D21C17201734B21BA
:1089D0004173202181734E21C173752101746D2172
:1089E0004174702181746121C174642101750D216C
:1089F00041750A21817515200CF0D2F910BD0000D7
:108A00000841002010B54E21084841714121817173
:108A10004D21C171452101723F2141720D218172A9
:108A20000A21C1720A200CF0BBF910BD08410020D8
:108A300010B5522108484171452181715321C171FE
:108A400045210172542141720D2181720A21C172A6
:108A50000A200CF0A5F910BD0841002010B55221E4
:108A60000848417153218171C171492101723F212F
:108A700041720D2181720A21C1720A200CF090F915
:108A800010BD00000841002038B5044600200090C9
:108A9000412129484171552181715421C1714F21D2
:108AA0000172532141724C2181724521C1720173BF
:108AB000502141733D218173642094FBF0F03030EC
:108AC000C0B28DF802009DF80200002809DD9DF873
:108AD0000200303800EBC00101EB0010A4EB800075
:108AE00084B20A2094FBF0F03030C0B28DF801005F
:108AF0009DF80100002807DD9DF80100303800EBEB
:108B00008000A4EB400084B204F13000C0B28DF8C4
:108B100000009DF802100848C1739DF8011001740F
:108B20009DF8001041740D2181740A21C174122036
:108B30000CF036F938BD00000841002010B5532173
:108B40000D4841714C2181714521C1710172502143
:108B500041724D2181724F21C1724421017345211F
:108B600041733F2181730D21C1730A2101740F20CC
:108B70000CF016F910BD00000841002010B5552179
:108B800008484171412181715221C1715421017202
:108B90003F2141720D2181720A21C1720A200CF01D
:108BA000FFF810BD0841002010B556210B48417157
:108BB000452181715221C1715321017249214172B4
:108BC0004F2181724E21C1723F2101730D214173EA
:108BD0000A2181730D200CF0E3F810BD084100203C
:108BE00010B52B4890F8F0012A49097888420FD037
:108BF00028480078264981F8F001012026490870AC
:108C0000234890F8F00118B90120214981F8100299
:108C100021480078012839D100201F49087002F04E
:108C20003FFF07F037FA04201C490870F220487013
:108C30001B48007888701B480078C8701A48007874
:108C400008711A48007848711948007888711948E5
:108C50000078C8711848007808720E48007838B952
:108C600004200870042215210C480CF021F80DE0B6
:108C70000422152109480CF01BF850210F48FEF77B
:108C800088FB012215210D480CF012F810BD0000E0
:108C9000300A00201F000020D60200204B0D0020CB
:108CA0001202002013020020B9020020B3020020AB
:108CB000B00200203000002014000020E20C002050
:108CC00008B50D48006880B20090BDF80000C0F300
:108CD000002040B10121094880F83410032102200E
:108CE00000F0B8FA07E00021044880F834100321AE
:108CF000022000F0AFFA08BD100400405C0C002018
:108D000010B5012148F2C00004F046FA4FF4803259
:108D1000D110164801F06CFD4FF080524FF4C04165
:108D2000134801F065FD4FF4C041114801F08EFD7C
:108D30004FF400510E4801F087FD4FF480410C487C
:108D400001F082FD00224FF48041084801F050FDFF
:108D500000224FF40071064801F04AFD00224FF452
:108D60008071034801F044FD10BD00000008004080
:108D70000004004078B50346002096E0524C245C85
:108D8000524D2C5D8DF800404F4C245C504D2C5DB5
:108D90008DF801404C4C245C4E4D2C5D8DF802400A
:108DA000494C245C4C4D2C5D8DF803404B4C247891
:108DB000012C1AD14A4C2478FE2C0CD1494C247831
:108DC000042C04D1464C2478641E454D2C7000249C
:108DD000424D2C7023E0434C2478042C1FD1404C8E
:108DE0002478641C3E4D2C7019E03D4C2478012CF5
:108DF0000CD13C4C2478042C04D1394C2478641CCC
:108E0000374D2C700124354D2C7008E0354C2478FA
:108E1000042C04D1324C2478641E314D2C70304C1B
:108E20002478314D2C709DF80040012C1BD12C462C
:108E300024785C43FF2594FBF5F49DF801502B4EFC
:108E40007455294C24784C43FF2594FBF5F49DF888
:108E500002507455244C24785443FF2594FBF5F4B8
:108E60009DF8035074559DF80040022C1BD11E4CF8
:108E700024785C43FF2594FBF5F49DF801501C4ECB
:108E80007455194C24784C43FF2594FBF5F49DF858
:108E900002507455144C24785443FF2594FBF5F488
:108EA0009DF803507455441CE0B20E28FFF466AFE1
:108EB0000C4C2478641C0B4D2C702C462478042C0C
:108EC00001DD00242C7078BD89620108405E010834
:108ED0006A5E0108945E0108BE5E0108D9020020A6
:108EE0005209002055090020DB02002066140020F2
:108EF0003E15002010B50C4890F8F101012812D160
:108F00000948D0F8F40142F2107188420BD30020D6
:108F10000549C1F8F40181F8F101044800780128FD
:108F200001D0FFF743FD10BD300A00201F000020D4
:108F30002148007A01283DD11F480069B0F57A6FB9
:108F400018D300201C4908611C480078022811D061
:108F50001A48007803280DD00521174890F8892178
:108F600000F5C5708154144890F88901401C1249DD
:108F700081F889011048C06843F2B061884219D372
:108F80000E480078032811D00C48007806280DD030
:108F90000621094890F8892100F5C57081540648DA
:108FA00090F88901401C044981F889010020024998
:108FB0000872C86070470000300A0020B60900201F
:108FC000074890F81D0107490978884207D00548ED
:108FD0000078034981F81D0101200349087070479A
:108FE000300A00201F000020D602002010B52348C0
:108FF000807C022840D12248007901283CD181039D
:10900000204801F015FC00BB4FF400511D4801F051
:109010000FFC012819D11A4890F81402401C184975
:1090200081F81402084690F81402642811DB00202D
:1090300081F81402084690F8130250B9012081F813
:1090400013020020C1F8180203E000200C4981F847
:1090500014020B4890F8130201280DD10848D0F8EB
:10906000180241F28831884206D300200449C1F831
:109070001802022081F8130210BD00008C3000207D
:10908000300A00200008004000B50A4890F80102AC
:10909000142801DD07F000FE064890F802021428AB
:1090A00001DD07F0F9FD04480078132801DD07F021
:1090B000F3FD00BD300A0020B902002070B501F0B8
:1090C00009FC00F03BFB3748007A012812D13548F3
:1090D000007C01280ED13348407858B931480079D6
:1090E00040B93149086880F3088800BF4868804764
:1090F00000BFFEE72B484078012851D12948807AEB
:1091000001284DD127488079012849D12548007A86
:10911000002845D12348007CF0BB22488078D8BB8A
:10912000224800684FF47A71B0FBF1F0642100FB33
:1091300001F4204608F014FA00240CE01B480068F3
:109140004FF47A71B0FBF1F0642100FB01F5284681
:1091500008F006FA641C0A2CF0DB154815498861F2
:1091600000BF00BF00BF00BF00BFBFF34F8F00BFF5
:1091700000BF00BF1048006800F4E0600F490843DA
:10918000001D0D49086000BF00BF00BFBFF34F8F37
:1091900000BF00BF00BF00E002E000BF00BFFDE76E
:1091A00070BD00005C0C002000E0FF1FA80900203B
:1091B000EB9C374A000001400CED00E00000FA058E
:1091C00070B5002400252148007800283CD02048B4
:1091D0000079012838D11E484069142834D30A2068
:1091E0001B4981F8680000BF0BE019481830005D8A
:1091F00028B10021164818300155012503E0601CF4
:10920000C4B2082CF1DB00BF012D05D102221049A8
:10921000183181200AF02EFE002501240AE00C48B6
:109220006830005D20B100210948683001550125F2
:10923000601CC4B2102CF2DB012D05D102220449BE
:10924000683182200BF02EF970BD00001F00002055
:10925000300A002030B504460D461E48807C0228A6
:1092600032D11D4800EB8400415D1B48143000EBF7
:109270008400405D81420FD0174800EB8400415DBF
:109280001548143000EB8400415500211248283065
:1092900000EB840041551BE00F48283000EB8400B0
:1092A000405D401CC1B20C48283000EB84004155A1
:1092B0000948283000EB8400405D022808DB29467D
:1092C000204607F001FE03E02946204607F0FCFD9A
:1092D00030BD00008C300020850C00202DE9F047C7
:1092E0008046894614461E462546E11704EB117157
:1092F00009115A310A032746E11704EB11710911CC
:10930000A4EB011102EB01204FF48072124908F026
:109310008DF8A9F1010101EB8102A8F1010102EB35
:109320000111C91C08034FF480720C4908F07EF843
:10933000700009300949095C70000830074A105C68
:1093400001EB0020064908800846008810B901207A
:1093500004490870BDE8F0878C2E00208C2F002077
:10936000A00900209F0900201448007801280FD18F
:1093700000201249087012480078032803D1012008
:109380000F49087004E00E480078401C0C49087032
:109390000C48007801280FD100200A4908700848BD
:1093A0000078012803D103200549087004E004482F
:1093B0000078401E024908707047000097020020A4
:1093C00013020020980200201448007801280FD1D1
:1093D00000201249087012480078032803D10120A8
:1093E0000F49087004E00E480078401C0C490870D2
:1093F0000C48007801280FD100200A49087008485D
:109400000078012803D103200549087004E00448CE
:109410000078401E02490870704700009402002046
:1094200012020020950200204C48007806281CD12A
:109430004B48008847F23051884216DB00204849EB
:109440000880072045490870002046490880082107
:10945000454890F8892100F5C5708154424890F83C
:109460008901401C404981F889013F4890F8FA0180
:1094700002284AD13C48D0F8FC0143F2B06188424E
:1094800024D300203849C1F8FC01FF2081F8FA01FB
:109490000721354890F8892100F5C570815432487C
:1094A00090F88901401C304981F8890107202B4937
:1094B000087000202B4908802C4908702A48007940
:1094C000012849D100202A49087045E02648D0F8F3
:1094D000FC014FF47A61B0FBF1F201FB1200D8BB42
:1094E0000521214890F8892100F5C57081541E4856
:1094F00090F88901401C1C4981F889010846D0F880
:10950000FC01401CC1F8FC0126E0174890F8240239
:10951000022821D11148007803281DD01248D0F824
:10952000FC014FF47A61B0FBF1F201FB120098B933
:1095300005210D4890F8892100F5C57081540A482D
:1095400090F88901401C084981F889010846D0F843
:10955000FC01401CC1F8FC0170470000B609002066
:109560007002002076020020300A00201402002041
:109570001F00002010B5684800680A287DD300202D
:10958000654908604FF40071644801F051F962497F
:10959000087108464079097988426FD05E48C079E1
:1095A000401C5D49C8710846C079322865DB084611
:1095B000007948710846007978BB032058498874BF
:1095C00008F06EFC64200AF031F9FEF78FFB64208E
:1095D0000AF02CF901205349087053480078B8B1BB
:1095E00052480078032813D014200AF0ABFFFEF78E
:1095F000EDFF052007F06EFA14200AF0A3FF00200B
:10960000454981F88901012008720020C86008617D
:109610000020414981F8130252E0FFE73E480079FB
:1096200001284DD108F082FC64200AF0FFF83C4884
:10963000807C022840D1FEF759FB08F031FC642001
:109640000AF0F4F839480078032804D1FEF762FFE5
:109650000A200AF0EBF804202F4981F8FA011420BF
